:2000000000400020DD01010001C9011001C9011001C9011001C9011001C9011001C901107F
:1C00200001C9011001C9011001C9011001C9011001C9011001C901103FC9011089
:20003C0080B54FF4FC720FF278011A480BF03CFF194800210170012141740221C17601BDCA
:20005C002DE9F0410FF25021144838220B684C688D68CE680F69D1F814C0D1F818E0D1F824
:20007C001C80036044608560C6600761C0F814C0C0F818E0C0F81C8020312030521EE5D1F7
:20009C004A688B68CC680968016042608360C460BDE8F081480400215903002100C000210F
:2000BC00410500217D0500212D06002170B51D46004C204787B2000010B5014800470000FD
:2000DC00D509000070B5614C6148254650358047022809D14034E1885E4A914204D1E97C5E
:2000FC00890601D4911DE18070BD70B557495A4A084650300378002B10D08379012B0DD181
:20011C00037C5B09DB0709D0097D544DC1746C7F20202043687790476C7770BDFF21C17420
:20013C00904770BD10B54E48484C804702280ED121464031CA88474B9A4208D1CA7C5209CE
:20015C00D20704D0227D920601D49A1DCA8010BD70B53E4843494030C07C4009C00707D032
:20017C003E4D41482C8B2043288388472C8370BD884770BD10B53B48344CAC388047214609
:20019C0053310A789309DB0705D04034A2730A7803231A430A7010BD2C4940310871182876
:2001BC0012D004DC0A280BD00B2804D10AE025280CD02A280CD02D4980004018C0687047DE
:2001DC002B4870472B4870472B4870472B4870472B48704770B504461C484E252D5CAE09AB
:2001FC00F60716D0067D3007000F052803D00120054202D00DE00220FAE7E80905D07006D1
:20021C0003D54868800F012803D05B085B0052085200062B03D01020022B11D011E0FB20F7
:20023C00024002232046FFF741FF002807DAC100611A2039497E1422114200D1002070BD93
:20025C00024303432046FFF731FF70BD4401002137CB000004140000EBC80000A800002142
:20027C00F5B4000053AD00002020000080DF00001D050021F9040021CD040021930400210F
:20029C006D04002110B5034CFFF716FF20680028FAD110BD0011044068610000F825F965B0
:2002BC00F9754500450045002600260057A3520052004C00401F401F401F3F000000000053
:2002DC00304000400140034007400F404F40CF40CF41CF43CF47CF4FCF3FCF2FCF1FCF0F6C
:2002FC00000000000000000000000F00080000003F00000040003F000000040068000E0093
:20031C00DC00060043001A00050000000000020000000000000000000400C00000000400B3
:20033C00C000000007000000000000000000000000000000000000003040004001400340A6
:20035C0007400F404F40CF40CF7FCF6FCF5FCF4FCF3FCF2FCF1FCF0F00000000000000009D
:20037C0050C00091007070C00091007082312100319110B10070018101B100A1823132910D
:20039C0010B101911110418141227740F106007051C0019130181039833108D01831416FD1
:2003BC003100319110B18314141683680070251050C00091F4C340C12014036F3110410497
:2003DC005082F0229840512622C082312100319110B163393110410482C08231210031919B
:2003FC0010B163393110A2C082312100319110B150101531051405920070676452C03110A6
:20041C0031066131C1026A6412C13110213971065131E1026A64007051C0019101CCE2C0CC
:20043C006A64676411C1C2C06A6450B054B0007140804022D6440022C94060B08180111EC9
:20045C00C944007054A064B0F0800022C9404012B09032B070C1DF6811C122C16A6470C1C0
:20047C00E46851C00191E2C0823160820200329110B130C2EE68538253395339B16460C347
:20049C00F4688012B09032B00070676401C122C16A6401C1C2C06A645382B164C012B09074
:2004BC0032B00070676472C281C06A6422C111C16A6402C011C16A6462C031C36A6462C3D2
:2004DC0011C16A6402C311C16A6453825339B164E2C36F6411221C4142C281C86A6452C24E
:2004FC0011C16A6472C2E1CE6A6402C281C86A6402C201C86A64B0C030690070676442C211
:20051C0001C86A6452C211C06A6472C2E1C06A6402C001C16A6462C001C36A6422C101C127
:20053C006A6462C301C16A6402C301C16A645382B16400708180111E5C4150B054B000712B
:20055C00408040225D4154A064B0F1800122514500700022514160B04E61000000000000AA
:20057C000000000000000000067305720B720E7250B00071818060B050A09280F0EFF1928C
:20059C0002936A6741228C458080F1C11004301601110114016CB561B661B761B861B9618D
:2005BC00BA61BB61BD61BF61C161C36126632D63F0C002043231412A121432160111211412
:2005DC00016CDA61C561E061C761CB61B561B561B561F461C561FA61C761CB61B561B56104
:2005FC00B561F461C561FA61C761CB61B561B561B561E761C561ED61C761CB61B561B56121
:20061C00B561CF61CF61CF61CF61CF61CF61C064CF61F964CF610665CF613265CF6174676A
:20063C00CF611166CF61C0644E65F964CF61066511663265CF618280E0DFF2926A67B0B044
:20065C00D661B1B00673057230B06C61D0CF6A6784C203C0C0C37C64207851788278E378B7
:20067C001579B6780062C0CF6A6784C203C0C0C37C64307861789278F3781579C678006250
:20069C00B0CF6A6784C203C0C0C37C6440787178A27803791579D678109221923292439281
:2006BC005492659256911FC0FF914039F00601101031101400927067CF61E3B054A0F08076
:2006DC0050221A4640800022BE461262E3A000C86091598150B0918041228E46A0CF6A6734
:2006FC0012828231823942398B641282F2062F101F312F141682D622334640C1346200C5AF
:20071C0020140D6F6D39DE10F4C34E0482C082312E006D39A2C082312D001A828A39FA0606
:20073C002082803180390BC00B18BC10AC18038239149B141082F0060110103110145181C2
:20075C0010140C14C622C94631D0C1266462021011C0013010C00118021882312100C126C2
:20077C00919103B013B063B053B041800122BE46B481C491D581B51C774E95186591F0803E
:20079C00102269428C623D9110B13E9110B1E08000228146E6228142E0B0951865910F926B
:2007BC005981F914F0805022114210228C464D6390CF6A6763B052A03082F2C0200402107E
:2007DC0011C0013010C00118021882312100C1269191919113B003B063B053B064B054B055
:2007FC00007141800122BE4663B064B0F08050221142B181C191D1819118619131B0A462D0
:20081C002967E0A059810582591480C0007163B0BA6A6962E3A0018262818231823D80EF61
:20083C00F19202936A6703A0007037824739873930828039F006021011C0013010C0011849
:20085C00021882312100C126819102B012B030824039F006021011C0013010C001180218E9
:20087C0082312100C126919103B013B063B053B0007153A062B052B041800122BE46A4816E
:20089C00C491D581B51CFE4E95186591F0801022F0428C62B481C491D4814518751C084FEB
:2008BC00F0801022F0428C623D9110B13E9110B1E08000221247E6221243E0B065910F92DC
:2008DC005981F914F0805022114210228C4630632967E0A0598105825914F0C0007162B038
:2008FC00226BF062A2808B64CF6112824239F2068B6050B00071CF6170CF6A674082418096
:20091C000122BE46A481C491D58195186591F18011228C46336B41800122BE46A481C491AB
:20093C00D581C51C1C4B95186591F08010223F438C6260CF6A67408241800122BE46B48169
:20095C00C491D58195186591F18011228C46506B41800122BE46B481C491D581C51CB44A55
:20097C0095186591F08010225C438C62E092D08200226B47C0B20070A080F022874330B033
:20099C0002C1623101C0A080001E8043F022814380F86031603981632010101A136F236E5A
:2009BC0011161216826B00702DE9F84FDFF81485DFF8141588F80000002008600921DFF899
:2009DC000C0501700D2141804FF408718180DFF80005DFF8001501608A7EDFF8FC04027053
:2009FC00FF2ACB7E437008BFFF2B0D7F85704E7FC6708F7F0771C97F417115D1FF2D08BFE8
:200A1C00FF2E11D1FF2F08BFFF290DD1DFF8CC140A7802704A7842708A788270CA78C27029
:200A3C000A79027149794171DFF8B41402780A70FF2542784A7082788A70C278CA70027922
:200A5C000A7140794871DFF89C14DFF89C04057045708570C5700571457100200880DFF890
:200A7C008C14DFF88C04466B70780870DFF8841430780870DFF88014B0780870DFF87C1441
:200A9C0070690079401E0870DFF87414F0780870DFF87014B069086008B911F03BFEF069A3
:200ABC00DFF86444206008B911F034FE2068DFF85C74006880472168091D3846096888475C
:200ADC00DFF84C04DFF84C143862DFF84C047862306A086008B911F01DFE706ADFF83C1421
:200AFC00086008B911F016FEDFF834B4DFF834649BF8040012F006F9306008B900F043B999
:200B1C009BF80500DFF8207412F0FCF8386008B9306835E19BF80600DFF8104412F0F2F809
:200B3C00206020B9306812F0F5F8386828E19BF80700DFF8FC9312F0E5F8C9F8000038B97F
:200B5C00306812F0E7F8386812F0E4F8206817E1DFF8A01309789BF80000DFF8D8A3891C6D
:200B7C00484380B212F0CEF8CAF8080058B9306812F0D0F8386812F0CDF8206812F0CAF8E4
:200B9C00D9F80000FCE0DB480078010000F00081BBF80210DFF8A0B3484380B212F0B2F827
:200BBC00CBF8040078B9306812F0B4F8386812F0B1F8206812F0AEF8D9F8000012F0AAF8EB
:200BDC00DAF80800DCE0CB48007812F09BF8DB49086080B9306812F09DF8386812F09AF81B
:200BFC00D9F8000012F096F8DAF8080012F092F8DBF80400C4E0BF4800781C21484312F04E
:200C1C0081F8CF490860B0B9306812F083F8386812F080F8206812F07DF8D9F8000012F055
:200C3C0079F8DAF8080012F075F8DBF8040012F071F8C248A3E0AF480078400112F062F803
:200C5C00C0490860D0B9306812F064F8386812F061F8206812F05EF8D9F8000012F05AF888
:200C7C00DAF8080012F056F8DBF8040012F052F8B248006812F04EF8B14880E09D480078AB
:200C9C00000112F03FF8B0490860F0B9306812F041F8386812F03EF8206812F03BF8D9F8BB
:200CBC00000012F037F8DAF8080012F033F8DBF8040012F02FF8A148006812F02BF8A04882
:200CDC00006812F027F89F4859E08A480078000112F018F89D49086010BB306812F01AF82D
:200CFC00386812F017F8206812F014F8D9F8000012F010F8DAF8080012F00CF8DBF80400FF
:200D1C0012F008F88D48006812F004F88C48006812F000F88B48006811F0FCFF8A482EE02D
:200D3C00744800783021484311F0ECFF8849086070BB306811F0EEFF386811F0EBFF20689E
:200D5C0011F0E8FFD9F8000011F0E4FFDAF8080011F0E0FFDBF8040011F0DCFF7748006846
:200D7C0011F0D8FF7648006811F0D4FF7548006811F0D0FF7448006811F0CCFF734800687D
:200D9C0011F0C8FF002011F0C5FC4FF4804192E03168012008710022306805733068457362
:200DBC00306885733068C573306805743068457400203168C87231684871A0213068C18076
:200DDC00032101720720316848720020316888722821306841820121C176002031684877BE
:200DFC00316881F85E00012031680877316881F85D00396808713868057338684573386895
:200E1C0085733868C573386805743868457400203968C87239684871396888724FF42070B1
:200E3C003968C88008818A7401213A68D17421680D7321684D7321688D732168CD732168F0
:200E5C000D7421684D7400212268D1720121226811710021226851712168C88008810020A8
:200E7C0088722168887405202168C874394800688047054629480068006880472749096809
:200E9C00091D00200968884719481D49C06809780088084330490880284630490968884745
:200EBC000C212F4800F05EF80F4800F05FF800F061F84FF4005198F80000BDE8F44F09F040
:200EDC0099BE00BF6E4F0020044F0020604E0020084F0020B63F00502C4E0020E812005022
:200EFC003C4E00200C4F0020344E00206D4F0020284501007B4F00206B4F0020724F002020
:200F1C006C4F0020F04E0020F44E00207C4B0020212D0100F84E0020312D0100FC4E0020B5
:200F3C00D81D0020104F0020B82E0020184F0020BC2E0020982E0020684E0020004F00203F
:200F5C00BC2B0020B42E0020884E00208C4E0020904E0020B0180020544F0020B4180020E7
:200F7C00F84D0020DFF800F0E5710110DFF800F01D6E0110DFF800F04D710110164880B536
:200F9C0007683FB315498B6803EA5300C00E21D2134A106880081DD2486880081AD210689A
:200FBC00096810F0050F4FEA114101F0F00101F5E0710AD1B9420DD2190F38BF40F00100D7
:200FDC00D90E38BF40F0040003E0B94202D920F00500106080BDC04628500940AC3F005066
:040FFC0000000940A8
:20100000B41200001810000015AB0110FDB301106DC00110FDAE011099B5011000000000F7
:08102000000000002F00000099
:20102800B01200003C100000B1C00110A9BF011067C0011069B80110000000000000000035
:041048002D00000077
:20104C00B012000060100000BDC00110CDB30110D9BD01106DB3011000000000000000005B
:04106C002E00000052
:2010700000000000F81D002004000000000000000000000020000000E8C901103000000015
:2010900028100000001E00200400000000000000000000000C000000D8CA011018000000EF
:2010B0004C100000081E002004000000000000000000000024000000F0CA01101800000073
:2010D00000000000101E00200400000000000000000000001000000018CA01102C0000007F
:2010F00000100000181E0020040000000000000000000000200000006CCA011024000000EB
:20111000FFFFFFFF201E00200400000000000000000000002800000090CA011024000000AA
:20113000FFFFFFFF281E00200400000000000000000000001400000008CB01101800000029
:20115000FFFFFFFF301E002004000000000000000000000058000000B4C9011034000000F7
:20117000FFFFFFFF381E00200400000000000000000000001000000020CB011018000000C5
:20119000FFFFFFFF401E00200400000000000000000000001C000000B4CA011024000000F2
:2011B000FFFFFFFF481E00200400000000000000000000003800000044CA0110280000001A
:2011D000FFFFFFFF501E00200400000000000000000000005400000078C901103C0000008F
:0811F0000100000010450100A0
:0411F80001000000F2
:0411FC0000000E00E1
:0412000000000F00DB
:0412040032000000B4
:0412080001000000E1
:04120C00AC1C0020F6
:0412100000020000D8
:0412140000000000D6
:0412180001C90110F7
:04121C0000000000CE
:0412200000000000CA
:0412240008000000BE
:04122800000023009F
:04122C00741B00200F
:0412300001000000B9
:04123400C41C0020B6
:0412380008000000AA
:04123C008C1C0020E6
:0412400000000000AA
:0412440000000000A6
:04124800080000009A
:04124C00000000009E
:04125000000000009A
:041254000000000096
:041258000000000092
:04125C00010000008D
:04126000DC1B002073
:041264000600000080
:041268000100000081
:04126C00581A0020EC
:04127000000000007A
:041274000000000076
:041278000002000070
:04127C00000000006E
:02128000290043
:02128200010069
:02128400250043
:021286002D0039
:021288002E0036
:02128A002F0033
:02128C0001005F
:01128E00015E
:0812900003000000C844010046
:0812980000000000000000004E
:0412A0000000010049
:0412A4000000030043
:0412A80013C401105A
:0412AC00F92A01001A
:0412B000B812000070
:0412B400B81200006C
:0412B8000000000032
:0412BC00C41C00202E
:0412C0005F2C01009E
:0412C4002000000006
:0412C80014440100C9
:0412CC00704301006A
:0412D00029C101101F
:0412D400B708010056
:0412D800831101007D
:0412DC00A1C7011095
:0412E000A3C701108F
:0412E4000000000006
:0412E8002743010097
:0412EC002C41010090
:0412F0004441010074
:0412F40014410100A0
:0212F8000200F2
:0212FA000900E9
:0212FC000100EF
:0212FE000000EE
:0113000001EB
:04130400012C0100B7
:04130800DD100100F3
:04130C00F9200100C3
:041310009114010033
:04131400F7140100C9
:0413180015110100AA
:04131C0015DC0000DC
:04132000C72D0100D4
:04132400FDED0000DB
:0413280015C70110D4
:04132C0025C70110C0
:201330002DE9F04F0F4685B0804617F8010B8DF800004FF4B07008EB00044FF49C7008EBBC
:2013500000059DF800104FF4C67008EB0006182908F1E70A08F1660908F20D1BDFF86C0762
:2013700000F2A183DFE811F019007200660194009F039F03FD0079031401270101011001EC
:2013900038019F039F0384019F0368015C018503E402E40236029F03810217F8010B88F887
:2013B00086000222394608F1880012F053F90146022208F18A0012F04DF90146022208F18B
:2013D0008C0012F047F90146022208F18E0012F041F9074698F88600400088F8860008F15F
:2013F000860108F18600022240884000488008F1860080884000888008F18600008900010B
:201410000881394608F1840012F024F908F10601B9F81E004988401A80B247F6FF71884275
:201430002BDA08F1860008F18601C0888988401C4900484308F186010989884228BF3B20F1
:2014500080F04082012089F81C001CE00522394608F1610012F0FEF80146022208F19200A2
:2014700012F0F8F808F1860008F1060180894988401A80B247F6FF71884280F2228208F1FF
:2014900086010120887208F10601002008834CE29AF81600C0070AD41A208AF80E009AF818
:2014B0000D00012808BF0D213FD00D21D7E1002089F8000089F80600082201208AF81100F6
:2014D000394608F1B00012F0C5F80146022208F1B80012F0BFF808F1A804014608222046C4
:2014F00012F0B8F807460821204612F0AFF808F19C0404223946204612F0ACF804212046D0
:2015100012F0A4F808F1A00012F09CF808F1980012F094F8DFF8B805018841F0800101807F
:201530009AF80D00012806D10421404605B0BDE8F04F0FF0B3BC99F81000012804BF99F82C
:2015500011000F280BD140460DF05CFD042140460DF0D8FA0F2089F81A00FD217FE1042194
:201570007DE101208AF80F00ACE2002089F8000089F806008AF800000B2101208AF80D0037
:2015900000208AF801006AE101208AF8100099E2002142187B5C547A23437B5452781A40A6
:2015B00008EB0103491C082983F8FD20F1DB40460DF0B4F97CE2002142187B5C547A234316
:2015D0007B5452781A4008EB0103491C082983F8FD20F1DB022053E299F8060008B93D200B
:2015F00070E19BF800000128D1D017F8010B8BF8030002224FF489703946404412F02AF805
:2016100001464FF48A700222404412F023F801208BF800009BF8020000281BD10C211EE1F8
:201630009AF81600C00601D41220D9E040460EF003F93DE2387845E13878207078786070F7
:2016500099F8100001280DD199F811000F2802D0162803D036E20120687333E2307B40F012
:2016700001001EE205B0BDE8F04F002011F058B89AF81600810706D41121084201D10F2008
:20169000AEE01A2254E03878797800EB01202882F978B87800EB012068827979387900EBC0
:2016B0000120A882F979B87900EB0120E882387A2876B97A787A00EB01206883397BF87A24
:2016D00000EB0120A883B97B787B00EB0120E883397CF87B00EB01202884B97C787C00EB31
:2016F00001206884397DF87C00EB0120A884B97D787D00EB0120E8844FF4AA704044049053
:20171000688B0390287E029008F1060040880190E88A0090AB8A6A8A298A40460CF0C4F986
:2017300068B19AF81600400701D40F2058E01E22404605B0BDE8F04F0F210FF0A5B9688A77
:2017500008F186018880A88AC880E88A0881022088F886000020488008F1060108F106006D
:20177000C08DC01DA9F81E0008F18600898D808888420FD108F1860008F10601C088C98D0C
:20179000884207D108F1860008F106010089098E88421DD099F81000012804BF99F8110012
:2017B0000F2807D099F8150020B10F2089F81A00FE2154E0FC2140460DF0A4F9E88A009038
:2017D000AB8A6A8A298A98F8060011F033FF79E1102144E09AF817000921084203D116207E
:2017F0008BF80C0061E17978387801F00701084038700146707B0840F07212D0411E084217
:201810000DD0400703D5B07B08B1042003E0F17A0220014201D0F07201E04008F9D1F07A71
:2018300008B9B07AF072F07A042803D140460EF0CAF8A083F07A11F0F9FE3071A28BB17B1C
:2018500001230EF013FF0146208B884205D3A28BB17B307901230EF009FF708017214046D6
:2018700005B0BDE8F04F0DF04DB978783978814207D100F007000840387034D0421E1042E3
:201890000FD01E22182140460FF0FEF898F80610002300221E200AF081F9307B40F04000AD
:2018B000FFE0F072F978B87800EB0120308108F1060130894988401A80B247F6FF718842EC
:2018D00006DB28208BF80B0001208BF80A00F9E00120B071F07A042803D140460EF073F81F
:2018F000A083F07A0BE099F81100162806D1B27A98F80610134600200AF050F9B07A307150
:20191000A28BB17B307901230EF0B0FE0146208B884205D3A28BB17B307901230EF0A6FE89
:201930007080307B40F04000307301202870C9E03878797800EB01206082F978B87800EB6C
:201950000120E0827979387900EB01202082F979B87900EB0120A082A18AE089884288BF2D
:201970000846B17A042904D1B0F5296FD8BF4FF42960E28BE0839042B07A14BF4FF0010954
:201990004FF00009042803D140460EF01CF804E0A089E18A884288BF0846A28BA08390425E
:2019B0002089628A238B14BF01210021904288BF1046984241EA090114BF0122002242EAFC
:2019D00001052083A28BB17B307901230EF04EFE0146208B884205D3A28BB17B3079012324
:2019F0000EF044FE70806189208A628B814288BF01466183914214BF0120002005438A42F6
:201A1000344998F80620096801EB4211628B8041121DC00F0A7610B140460FF047FC9DF889
:201A30000000142810D145B1E08B0090638BA28B218B98F8060011F0F5FD404605B0BDE858
:201A5000F04F15210BF0C0B81DB1307840F008003070307840F020001BE038780E280ED089
:201A70000F2809D0122804D014280CD0162812D028E00020287225E00120287322E0032058
:201A90008AF815001EE0307840F00200307040F01000307016E0307B40F00200307340F0A1
:201AB000100030730EE08BF80C1040460DF0DEFB40B905B0BDE8F04F074800784FF480411D
:201AD00009F09EB805B0BDE8F08F00BF642E0020524F0020B42E00206E4F00202DE9F04F68
:201AF000D04C04F118012046ADF1440D0DF0B4FDD54D00264FF6FF70012366703246208299
:201B1000294604F1A4000EF001FA0223324604F1C80029460EF0FAF90423324604F1EC007A
:201B300029460EF0F3F94FF0040A04F1440810224046314684F802A00BF0A1FD04F1540976
:201B50001022484631460BF09AFD04F11C073E6004F10A052E70E671267207206072CDF8A7
:201B70000080DFF81883022210200346414606F05BF8102003224146CDF80090034606F086
:201B900053F81020524641460097134606F04CF84FF0080B4FF0030905F12A000C9005F122
:201BB00079000D9005F11E000E9005F15A000F902435109517E06078A28FE18FB4F84050B4
:201BD000B4F8423006280ED1ADF81A20ADF81C10ADF81E50C048ADF8203011F0F9F90120F6
:201BF00006A90BF001F9A069BA4A31464FF0FF3311F014FD071CF6D002960DF122000DF18B
:201C10002E0102AA0FF056FC002840F0CB81BDF822102078102940F0C1819DF82E1088421D
:201C300040F0BC81029D29884FF6FF728A4200F0AA812B78A23B00F08D812E3B40F0AE81F4
:201C5000A978B046002900F04981891E00F01881491E012940F2E880891E00F0A880491EF9
:201C70007BD0491E5CD0083900F06481891E40F0678194F83A30A888052BADF80C0047D083
:201C900001208DF81600944811F0A2F994F83A0001281ED004281CD003280DD002280BD0FE
:201CB0000298C188ADF80E100189ADF810104189ADF81210818927E0A08FE58FADF80E0027
:201CD000B4F84030ADF81050B4F84210ADF812301AE0A08FE9888842D8BF081CADF80E001C
:201CF0002989E08F8842D8BF081CADF810006989B4F840008842D8BF081CADF81200A9892D
:201D1000B4F84200884200DC0846ADF8140001E08DF81660AF49102003AA05F085FF0FE1FE
:201D3000AD4811F055F96B78002B40F00981E88860822889A0826889E082674810F0B8FFA9
:201D5000002840F0FD80656A002D00F0F9802B68608AA18AE28A9847F2E0AA88B549102014
:201D700005F062FF0C98414606220BF088FC6682A682E682A8792073574811F029F996485F
:201D900011F026F94FF001084FF6FF702379208253B9A879082812BF84F801A00520607099
:201DB000404610F0ADFFCBE084F80190C8E06B787BBB291D0C980A6802608988818006236F
:201DD000637068892082E8896082288AA082688AE082E878E07294F83A00012818BF022870
:201DF0000BD19A4910201F2205F01EFF4FF47A7180B2414338480EF0C5FF6889009092490F
:201E1000CDF804A0EA7810202D1D2B4605F00CFF99E06878312840F08A80E67084F801A09D
:201E300091E0C046A80500206B78002B7FD1A878E3896178032815D0E078257933B9012870
:201E500014BF2671E67008E0112D0100054304D07F4819460EF096FF61780729DED10620D8
:201E7000607070E0062907D0E578002D08BF84F8019068D00220F3E70720F1E7FD24010079
:201E90006B78002B53D1EB78617893B902291DD007291BD0062902D12079012816D103296E
:201EB00014D06B4810F004FF80B9012010F028FF0CE00FF069FD0246A079624900900D9865
:201ED00043460190102005F0AFFE68706D78002D2DD135E007000080700600206B7833BB1B
:201EF0005C485749009002221020034605F09CFE59484A46524900901020034605F094FE76
:201F1000ED1C0E9829680160A98801238180207863700FF039FD024601230F9D6079494997
:201F300000901020019505F07FFEC0B258B184F801B008E0AA8841491020052305F074FEBE
:201F5000B8F1010F2AD1256A45B32D6835B36078A84723E06879132820D12889012808D12F
:201F7000607B022805D11C4811F032F80FF0D4FA14E036491020052205F056FE81B2164876
:201F90000EF000FF0AE06888C00B07D3334852462B4900901346102005F046FE029808B189
:201FB00010F0F3FF2579E078790830D355EA00032DD0204600788DB9E179257A8DF8241090
:201FD000109A8DF8255013680DF126052B609288AA8005E005160110940600208DF82490D6
:201FF000617A8DF82C10A17A8DF82D100FF0CCFC1149024609AB102005F016FE38B1256A8A
:2020100084F801B01DB12D680DB15846A847B80803D3134930460AF0E7FEF808FFF4E3AD0B
:20203000607B401E3FF4C7AD401E7FF4DCAD0FF073FAD8E5D5F2000059440110C1170110CF
:2020500001A0000009450110159C0000F58401104C060020EC050020FC050020C4050020A8
:20207000E20500202DE9F84F01200FF06DF901280ED1DFF8E45429680020487128680EF057
:20209000E9F804F04BFC040003D1812011F0C2FA5DE201206071DFF8C464DFF8C404417856
:2020B000491C41702968A07981F8A00040200BF097FB2060307901281CBF002010F030FBD2
:2020D000F0682168DFF89C6400F5B060C86030680068007903281CBF002010F021FB3068B8
:2020F000DFF88494006800F1080A4FF4977004EB00089AF80000C0F3801088F800000622B8
:202110004FF494700AF10201204410F01FFC04220AF10E0104F1240010F018FCD9F80000BD
:20213000A37900EB431004220AF10E010C3010F00DFCD9F80000A37900EB431003220AF175
:202150001201103010F002FC04F12C079AF81500B87002220AF1160104F1300010F0F6FBDB
:2021700002220AF1180104F1320010F0EFFB02220AF11A0104F1340010F0E8FB388960841B
:2021900002220AF11C0104F1360010F0DFFBB87879894000B8700901B88879814000B88098
:2021B00089B2F8884000F88080B2628C521C43005A438A4200D238B9DFF8B00300788021FC
:2021D00008F01EFD3B21F5E004F12E01204610F083F80520A081204610F040FA05220AF19E
:2021F0001E0104F1610010F0B1FB9AF823004009387011F00BFA60822968DD4D498A401A38
:20221000A8F80C0004F161019AF82300DFF864A300F01F00F87320460EF048FA31680968EE
:20223000002008711C26A1792868714341F6210242520022A179714301444A80A17971439A
:20225000084442609AF80200400609D5CA48008841F20A4188420CBFC848C948C4F89C01A1
:202270002046D4F89C118847A2792968724311448873A1792868714308440021C173C148E7
:20229000007870B1B88860B978730120208160812046D4F89C118847A2792968724311444A
:2022B0008873A179286871430844807B787394F8960108B910F034FAA1792868DFF8C8B276
:2022D0007143084494F89611491E01740022A17928687143084400214174A07929687043E0
:2022F00008444282A279D9F8000000EB421372430A445361A27972431144A44A8A61DBF80A
:20231000141091F800C094F806E05FEACC714CBF102100215FEA8C724CBF202200225FEAEC
:202330004C734CBF402300235FEA0C7C4CBF4FF0800C4FF0000C1143194300EB4E104CEA1C
:20235000010141F00F010172D9F80000A17900EB41100B214172D9F80000A17900EB41108A
:2023700004218172D9F80000A17900EB41108849097801291CBFDBF828104978C172D9F8E7
:202390000000A17900EB41101F210176D9F80000A17900EB411000214176A07909F0C8F94E
:2023B000A279D9F8001052018850A0794201895821B9072120460FF0EDFEC8E07549096880
:2023D00001EB001011F01EF9724AA1791268D9F8000002EB011200EB41114A60A17900EBCC
:2023F00041114968F963A17949014058786404215E48007808F004FC6249B888097800F1FE
:20241000020E19B110B9F88800F1020E608A00FB0EF04FF4C871B0FBF1F0401CC4F818E08D
:20243000606140F6C41394F806C02968226806FB0CFC8C44CDF800C0D2F80CC003FB0ECC85
:20245000ACEB0000A0F5A86C0098C0F808C0A0797043084480689060A07970430844017B90
:2024700001F0EF010173A179286871430844017B01F07F010173A179286871430844017BC6
:2024900001F0F00141F002010173A179286871430844417B01F0F00141F001014173A17959
:2024B0002868714308442168806808616269D9F80000A17997F802C0520000EB411103FB0E
:2024D0000C2202F5F6624A61A17900EB4110C17C01F0F00141F00401C174FA88D9F8000091
:2024F000A1795A43DBF830301B6800EB4111D21AA2F51672CA61A17900EB4110C17E01F066
:20251000F00141F00401C176A179286871430844216848609AF80100800615D5B8F83A0085
:202530001B2804BFB8F83C001B2809D1B8F83E00B0F5A47F04BFB4F86E01B0F5A47F03D04D
:20255000142120460CF0DEFA134907200870BDE8F14F01F0DBBA00BF104F0020B44D002037
:20257000684E0020F44B0020B42E00206E4F0020BC2B0020642E0020504F0020D3EB000001
:20259000C7F50000784E0020284501005C4D0020734F00208C4E00206F4F00202DE9F0474B
:2025B0005FEA000882B00BD1002010F0B9F807E040460CF05BFE012864D140460CF022FD1A
:2025D00008F16605687D00285CD04FF49E7008EB00044FF4B070697CDFF894A408EB0009B3
:2025F0004FF4C670022908F1EC07404408F1060635D0042949D005295FD0062900F08E80DD
:202610000729D5D0092900F0F4800B2900F0C6800C2900F026810D2900F0D5800E2900F067
:20263000F6800F2900F05D81102900F07881112900F09681122900F04181142900F0D6813A
:20265000162900F09781172900F0C381FC2919D0FD2900F0F481FE2900F0F681A4E7287C59
:20267000012809D19AF80300002814D0162140460FF090FD012006E040460BF0BCFF28747E
:20269000E88A28830020BDE8F687287C012810D19AF80200002800F01881FC2140460EF037
:2026B000FDFB307808F1B80208F1B00110F0A6FF86E7404609F038FFE1E7287C012810D1CF
:2026D0009AF8020028B1012088F89400002038607860B87A012869D1062140460EF0DEFB9F
:2026F0006EE708F1E7063078012809D140460EF0BBFA0128C6D10020B87201202874C1E73C
:2027100070780028BED008F1C70208F1A00108F1D70010F06FFF0120307051E7287C0128AB
:2027300038D19AF80200002840D0B08B308340460CF068FC0120287040460DF033FE012052
:20275000A871397A787C012900F010000CD130B10020607120684108A0790BF0E5FE307860
:20277000002110F043FF0FE048B14FF4A17008EB0003206842084146BE4810F0A1FB307811
:202790000122002110F02EFF002038723873F872B87215E740460CF03DFE70E7287C0128D2
:2027B00005D1F87A012808BFFC2196D08DE040460BF04EFD012853D10020F87288F894002A
:2027D00001202874FCE6287C01280ED19AF80200002809D0002088F8940001202870404696
:2027F0000DF0E0FD0120A871BDE040460DF07EFF45E7287C012806D19AF8020000281CBFB1
:20281000B08B3083A6E040460CF088F837E7287C01281DD1387C022808F1FD0204D1317805
:20283000002010F0DBFEC8E6032806D131781A2010F0D4FE00203874BFE6288B411E2983FB
:2028500089B200290CD13178222010F0C7FE42E040460BF0C3FB2874E88A28830120387490
:2028700010E7297C012908F20D1021D14FF4897108EB0102017801290BD14178012907D10C
:20289000518800911388C2783178002010F0A2FE93E6298B491E298389B20029E0D1518852
:2028B00000911388C2783178222010F093FE12E00121817040460BF0BDF8E0E6287C012858
:2028D0000BD19AF802000028E2D1288B401E288380B20028C4D12221C9E640460CF084FFFB
:2028F000CDE6287C012816D1607A012803D199F800000F281CE0207A012829D10020207257
:20291000288D00090090A88CEB8C317842081A2010F05CFE51E6404608F0AEFFAFE6287C8C
:20293000012819D1607A012812D199F8000010281CBF00200FF0F4FE00206072288D000929
:202950000090A88CEB8C3178420899F80100DFE7287F0028DED1B8E7404608F0DEFF8EE6F5
:20297000287C012802D19AF80300F2E740460CF006F884E6297C012926D1017B4A062ED4BB
:20299000CA070AD501F0FE0101730023317899F80100002209F002F90FE68A0707D501F04C
:2029B000FD0101730023317800221A20F2E7288B411E298389B2002955D13178002300225E
:2029D000222009F0EBF886E71621404608F0A2FB55E6297C012907D1017B4906BBD5017B51
:2029F00001F0BF010173E8E51721EEE7297C012920D101788A0617D501F0DF010A070170C0
:202A10000ED501F0F7010170B9F81E000090B9F81A30B9F81C20B9F81810307810F002FEA1
:202A3000002089F80600C8E58A0794D501F0FD010170F5E7142140460AF0C6F81FE6A97E5D
:202A500040460EF02BFABBE6A87E0F280CD1FC2140460EF023FA608A0090238AE289A18968
:202A7000307810F0E7FD0DE600200FF059FE09E65C4D002001D700002DE9F84FDFF8F44356
:202A9000A078FF2804BF00200FF04AFEA07810F073F804464FF4C97004F16806251830683C
:202AB000006804F1900708B100200EE0B07B002804BFB07E002809D13878002801BF2878CD
:202AD0000028207F012801D1608CE0832089E18B0818401C608120460FF088FA01281EBF76
:202AF000E5480078012804D10020E0832089401C6081B07E01280CD1B28B6189208910F0B6
:202B100061FD30B121896289481C82422AD0B28B1FE0387801280CD17A886189208910F028
:202B300051FD30B121896289481C82421AD07A880FE02878012815D16A886189208910F08A
:202B500041FD00281FBF2189481C6289824209D06A88824206D0501E608180B210F02EFD53
:202B7000401EE0832878012801BF68882189491C884207D16A792A71002028701346A179B1
:202B900009F00CF84FF49A702044007920B10020E0832089401C608104F12E07B07E012843
:202BB00001BFB08B2189491C884237D1608104F1860120460FF090FBB08CE1896084002032
:202BD0002077E08360890818A0812189B08B10F0F5FCB988328C01FB0028708CF28C884284
:202BF00004BF3B899A4202BFB18CFB88994207D0110900914208B38CA179002010F0E6FCDF
:202C1000B07F3870708CB880B08CF880F08C388120460FF023FD0220B07601E0B7F80480CF
:202C3000E08BDFF85892411C01FB08F140F6C41808FB01F200922268DDF800C0D36863446B
:202C5000DFF83CC2D360DCF800C08E4A9CF800C013884FEA9C1CBCF1030F12D199F80FC00E
:202C70005FEACC7C48BF00230BD45B1C9BB2012B07D14FF49A7CA444BCF806C00CF2DC5CF1
:202C900001E0B4F812C00CFB01FC4FF4C87EBCFBFEFCDFF8F4A10CF1010CC4F814C04FF042
:202CB0001C0B138084F82000A161A279DAF800102068C3680BFB02F20A4492680261A2793C
:202CD000D4F814C00BFB02F20A44A3EB0C039360A2790BFB02F20A4492688260A0790BFB0E
:202CF00000F00844017B01F0F00141F002010173A179DAF800000BFB01F108440021418070
:202D1000287908B90FF00CFDA179DAF800000BFB01F10844297949080174A179DAF80000B5
:202D30000BFB01F10844002141742879042812D1A179DAF800002A7A0BFB01F10844017C68
:202D500041EA82010174A179DAF800000BFB01F10844202141740022A079DAF800100BFBF7
:202D700000F0084442824948A2790068D4F814C000EB4212536903EB4C035361B27E022A47
:202D900007D1A2793E7800EB4212536908FB0633536199F80F20D20740D5A2790BFB02F2CC
:202DB0000A449368A3F5A8639360A2790BFB02F21144226889689160009BC91A1161A17944
:202DD00000EB41114A6902F5F6624A612979042906D1A17900EB41114A6902F5B0624A6195
:202DF000A17900EB41114969C4F8341128490D6BBB88A2792D6808FB03F300EB42125B1B2F
:202E1000A3F51673D361A27900EB4210214A1278012A0EBF0121896A497818E0A27929797D
:202E300000EB4212042952690CBF4FF44B614FF4E661511ABA8808FB02F2A2F51672914281
:202E5000D4D3082120460FF0A5F901200FE0C172A179DAF800000BFB01F1084421684860EB
:202E700007200D49087020460DF0DFFC0020BDE8F28F00BF684E0020784F00205C4D002084
:202E9000084F0020D02E0020BC2B0020B42E002028450100734F00206F4F00202DE9F04F01
:202EB000ADF1140D01F09EFBC048C14C4FF0000B00F1250680466069C14A59464FF0FF3394
:202ED00010F0ACFB071CF6D0CDF804B002A80DF1120101AA0EF0EEFA002840F0D080BDF830
:202EF000081020784FF00109102940F0C1809DF81210884240F0BC80019D29884FF6FF722D
:202F10008A4200F08D802B78913B3BD01F3B40F0AF80697816291ED028797E282CD07F28AD
:202F30002AD12889A749E0802889C01E08808AA00A210BF089F80DF079F882460DF076F8FC
:202F50000FF042FE81B250460BF07EF885A002210BF07AF810E00EF017FD0346484697497A
:202F700000906A88102004F05FFE28B948460EF079FDD94625627BE0297905F1080010F0BA
:202F900019FB75E068780E3829D0801E44D02E386ED1A8780C286BD1EB78DBB972A0102178
:202FB0000BF052F8E97975A276A0012914BF131C031CE979012918BF101C0FF005FE81B21E
:202FD00018460BF041F867A002210BF03DF8E87920714DE06DA012210BF036F848E0A88815
:202FF00042F20301814243D1A9680D78002D3FD1491C0DF10A000A68496802600DF10A05E0
:20301000416028786C490DF10A0200F0FD002870102004F009FE2BE008200BF015FF27E0A7
:203030006888400824D3256A15B3E07805F10803401CE0705F4900936A882B79102004F000
:20305000F3FD5FFA80FABAF1160F11D02078BAF1040F0DD0256A0EF097FCCDF800B0574984
:203070006A880346102004F0DFFD50460EF0FAFC019820B1B9F1000F01D00FF086FFF80803
:2030900037D3E06910F092FA002832D1E06910F089FA8068054660B3A078062818BF0728B8
:2030B00027D12878102824D1287A696808F0D6FC98B9287AD8F80C1028B14018C8F80C0022
:2030D0007070000A3070E0690FF06FFB68680FF05CFF28460EF06EFC03E031A009210AF0CC
:2030F000B3FFE06910F062FA18B96069042110F055FAF80F28D322E0A0690FF056FB051CDD
:203110001DD02B885B1E14D0DB1E15D1A978A0784A0905D209090FD306280DD1502002E00E
:20313000062809D1542028496070012008F096FC02E0A87805F05CF928460EF03BFCA0691F
:2031500010F034FA0028D7D07808FFF4B4AE1F480FF03CFFAFE6C0464D54552053697A65A0
:203170003A2000C00A0D00C0504859204368616E67656420746F3A2000C046C032204D626F
:20319000707300C031204D62707300C0504859204368616E6765206661696C75726500C0BA
:2031B0004E6F7469204641494C00C0467C10002008020020DDFE001095B400104D2C01008F
:2031D000050000C00C09002009020020B00200202DE9FF47BA4C0F460646F80B80F04681AB
:2031F000B80880F03381207BDFF8E092B90F80F0A780A07A002840F087803809C0F0868028
:20321000E07A20B10020E07205200EF001F800254FF001086570284684F8088007F0C3FB7C
:20323000A84904F178002A460FF0C1FE607901281AD1A079C0B9DFF89082D8F80000002892
:203250003CD048460068006B8047A1694346401A000BE0611968226A8018B0EBC11F98BF7A
:2032700020622BD9256201E084F8058040F609002087974994F845000A1D00F0F00040F081
:20329000010084F845001368658794F8440000F0F00084F8440023F002001060E5636FF059
:2032B00002020A6004F1380341F8103C08688008FCD30A60486840F002004860A5610DF01D
:2032D00011FB8448056002200DF0A2FF112007F0F7FC307C10B90E2007F0F2FC25726572D0
:2032F000A078012803D006F1400010F053F97A480FF068FD79490878F8B10D7004F1D400D0
:2033100004210FF06BFB18E0380914D2B80BC0F0CE8004F128000FF055FE061C08D07068F2
:2033300030B17568F068B6F91C1000222023A84727F40057BBE00020A07227F00807B6E03D
:2033500020B104200DF064FF00202073B168088840F602084FF0000A80450AD0B0F5C15FBF
:2033700007D00A8B4FF61F60104040F43470088306E00A8A4FF61F60104040F4347008826A
:20339000A069D8B14D46686D016804208847A8B12868006B8047A169814226BF401A401E42
:2033B000401A000BF060708AF168401840F6C411F06081422CBFB0F5FA7FF160B5699DB1B9
:2033D0004748A84210D094F8450010F00F0F0BD1718D08F10700884206D130466FF4807150
:2033F00052464FF00073A8473E4904F1780052460FF0DDFDA07958B10220ADF80000684688
:203410000EF04CFC84F806A0BDF80800A4F87400012060702079401C207104F1240084F85B
:2034300007A00FF0CFFD002808BF47F0020702D019200FF08DFC75692DB1514630464FF040
:2034500080630A46A84727F0005730E004F1300528460FF0B7FD06F047FE28460FF0B2FD1A
:2034700027F0020708B147F0020720E010F08EF8014604F12C000FF0A5FD0646B569A8087A
:2034900010D27EB125EA0500B061084610F07AF8706850B12A46F068B6F91C1075680023AA
:2034B000A84702E0084610F06DF827F4804727B104F1D40039460FF091FA0090BDE8FF8731
:2034D000080C002045200100B02E00208C0100101010044000000460D1960000AC2E00207E
:2034F000CFD90000FD990000BB482DE9F84F0025BA4CB849056094F8E200002800F0658121
:20351000012800F02F81B64E02283CD0032840F05C8151F8250CD4F8B8100029A0F5C06074
:20353000C4F8D400B8BF49420028B8BF4042814226DA4FF08057D7F8A4014568B4F8BC0066
:2035500030214FF47F42082300903046A847D7F8A4014568B4F8C00004214FF4F8021223C2
:2035700000903046A847D7F8A401B4F8D070456820214FF440620A2330460097A8470125C4
:2035900084F8D8501CE151F8258C0FF02DFC2F4600B901273946934F38680028FCD0B14616
:2035B000012609F10409D9F82CA03E6009B10FF021FCCAF30720C4F8BC000FF015FCAA4660
:2035D00000B9B2463B68002BFCD0D9F800B0BAF1000F3E6001D00FF00DFCCBF38440C4F8A0
:2035F000C0000FF001FCAA4600B9B2463B68002BFCD0D9F81C90BAF1000F3E6001D00FF01F
:20361000F9FBC9F38120C4F8D000B8F5C061C4F8B81000F09C8094F8D80068B9C4F8D4103A
:20363000D4F8C000C4F8C800D4F8BC70C4F8C470D4F8D030C4F8CC30D4F8D410D4F8BC3096
:20365000002954BF02206FF0010004F1C802176801EB41014018411000EB917107EBA10007
:203670001060D4F8C810C4F8C43000291CDD1E293CDDD4F8CC0030B93429B4BF15391E2116
:20369000C4F8C81025E02A29BABFD4F8C8000B381E20C4F8C800D4F8C4003F28B4BF401C56
:2036B0003F20C4F8C4001FE0D4F8CC00032812D011F10B0FC6BFD4F8C8000B30301CC4F8FF
:2036D000C800D4F8C4000028C4BF401E051CC4F8C450032508E011F1150FC6BFD4F8C80039
:2036F0001530301CC4F8C800C4F8CC504FF08057D7F8A401B4F8C43030214FF47F424568A1
:20371000374800930823A847D7F8A40104214FF400321123456832480096A847B4F8C860AB
:20373000D7F8A40104214FF4F802122345682C480096A847D7F8A40120214FF440620A2301
:20375000B4F8CC60456826480096A84701E084F8D85040F2FF50404502D8801C40452FD25A
:20377000082030E051F8251C1F4F4BF2F5204843060A3868C0F3814001280CD11B48006837
:20379000006880470DF090F80FF03AFB3111C010484306EBE03694F8E50030B9144800686F
:2037B00020F07F408019460801E084F8E5501148310C0660012741600F4D8760287808B948
:2037D0000B2000E0052084F8E40004F061F9BDE8F88FC0462D400C402C500C40DC16002036
:2037F00000A00C4000800C40B43F0050EC010010102009403C600C40764401002DE9F04F50
:203810000C46E00789B00CD50FF0C0F930B100218160AF480068010018BF804784F0010037
:2038300052E1A00710D5002006900590049003900290019000900023012200213C200FF0D2
:203850009DFE84F002003FE11E256007A14EA24F40F1A080002007908346A0488078FF28C5
:2038700004BF00200EF05CFF386890F8A0000FF083F980464FF4947008EB000A3868C07AD5
:2038900098F82E91022818BF032806D106F10D000FF070FE08B906F1070B514648460FF067
:2038B00065FE90B33868807A010018BF012804D1314650460DF0DDFF04E05246494630467B
:2038D0000AF0FFFEFF283ED005FB00F906EB090506225146E81D0FF039F816F8090040F079
:2038F0000209E81D079006223868807E00F0010088F82E0105F1010A386800F114014FF4C1
:20391000947040440FF022F81DE0514648460FF0CAF8C0B15246494630460AF0D2FEFF2814
:2039300011D06843351805F10D000FF023FE40B905F10D000FF01EFE002804BF687F012869
:2039500001D149F0020908F12C0008F10605017806914B464189090905910122A98B049119
:20397000C088CDF804B040080390CDF800A007980290002029780FF001FED8F89C01584938
:20399000884228780CBF0021012109F095F884F0040099E0200610D500200690059004903E
:2039B00003900290019000900023012200213B200FF0E4FD84F0800086E0E0043BD5F11DB3
:2039D00006F10D000FF0CEFD38684179012923D1017A012918BF04291ED1C17A022918BFBC
:2039F000032919D1817E00F1140230460AF069FEFF2811D06843351805F10D000FF0BAFD0B
:203A100050B9E91D05F10D000FF0ACFD38680622E91D14300EF09AFF32484268324800781D
:203A30004FF480510CF05AFC10B18E200FF096FD84F4805048E0A00505D50FF0D5F92B49DF
:203A500001200860FEE7600504D508F096F984F4806039E0600405D581200FF07FFD84F4E0
:203A7000804031E0A0042ED5214D286810B100200EF056FE4FF0FF3028600BF02DF91D4D0C
:203A9000296820316846096888471B4841682D681A4A00916B468168019100210291016966
:203AB00009680391017B00688DF81010ADF812002D6813491348A8471349086003F06CFD56
:203AD00084F4005000E0002009B0BDE8F08F00BF204F002008250020104F0020684E002041
:203AF000D3EB0000784E00206E4F0020FC002043044F0020F04E0020601B0020082E002014
:203B1000301D0020C02B0020EC4E00202DE9FE4FDFF8B082D8F80400029018B9BDE8F74F35
:203B30000FF018BD0078DFF8A0A2A84EDFF8A0B2A84C01281CBF0228042846F2A81705D0D7
:203B5000402818BF802800F0968034E10FF07CF90028FAD00298007805F0C8F98146D9F88D
:203B7000045015B900200EF0DBFD6078002859D002F0DCFD0FF000F8019000680090014662
:203B9000476848460AF000FC022827D099F800100129DAD190490968097A1BF801103170B9
:203BB00028B90FF0D3FC00F5E8504C30A8602869C17E01F0EF01C1762869C17E41F080012B
:203BD000C1762869C17E01F0F00141F00201C176B868824908182969C86147E00098007884
:203BF000802810D1082030707D480078012802D06078022801DB012002E0DAF828000078D9
:203C10007969C8720AE00720754930700978786901291CBFDAF828104978C1720198807912
:203C3000A07072E0B9F1000F8FD0029999F80000494505D101281CBF00200EF071FD18E0E2
:203C5000012840F0B88064480068007A1BF8000030700FF07BFC3918A8680FF073FC28B95C
:203C70000FF074FC00F5E8504C30A860012088F8020048469BE06078002873D002F056FDE0
:203C90000EF07AFF8146D9F8000001904568A0780EF072FF02900FF0DDF80721084239D05F
:203CB00098F8020005F022F90090476801990AF06BFB02282ED000990978012927D1464926
:203CD0000968097A1BF80110317028B90FF03EFC00F5E8504C30B8603869C17E01F0EF017F
:203CF000C1763869C17E41F08001C1763869C17E01F0F00141F00201C176A86837490818D7
:203D10003969C861012088F8020000984FE000200EF006FD0298484522D00198007880286B
:203D300010D1082030702E480078012802D06078022801DB012002E0DAF8280000786969BC
:203D5000C8720AE00720264930700978686901291CBFDAF828104978C17299F80600A070FD
:203D7000019824E00FF076F80721084228D098F8020005F0BBF8054628786C6801281FD1AD
:203D900015480068007A1BF8000030700FF0DEFB3918A0680FF0D6FB28B90FF0D7FB00F579
:203DB000E8504C30A060012088F802002846BDE8FE4F06F0BFBCBDE8FE4F00200EF0B0BC4F
:203DD000BDE8F78F982E0020284501006F4F0020289A0110684E0020104F0020F0D8FFFF88
:203DF000734F00202DE9FE4F0F46994C0168616241688068A0609748616080479648616A67
:203E100001606168DFF870B24160A168DFF8648281609249002FA246C16069D03D68E878D6
:203E30008DF8080028798DF8090002A80FF086FBA86808B18A490160E86808B18949016053
:203E5000894C2878207068786070A878BE68A0703178E1707368636072696261B168A160F7
:203E7000F168E160316921612E697B68A6621868A0616869E062A8692063287F84F834007B
:203E90002A6AA263786886681EB900200EF048FC00E026627868C06818B900200EF040FCD7
:203EB00000E060627868406818B900200EF038FC00E0E0612869A062F86881680E6806B973
:203ED0006B4E6A494FF001094E60C66881F801902EB900200EF024FCF868454601E04546BB
:203EF0002E6000685C46FE68A0617068E06106E000200EF015FC4FF001095C46454628687F
:203F10005E494668621C04F114035020B04710B1286880688047DAF804008047594F0026E0
:203F3000834669467E7056483E700422206130460DF00AFB0098B0F5801F0CD020B90DF012
:203F50002BFE05F08BF908E00CF030FC0EF046FE0420788001E00DF01FFE4B4FB046286826
:203F7000C7F808808069A660804778604748468080F8009014200EF0CBFEFF211422A062AC
:203F90000FF02AF8E01CFF2102220FF025F814200EF0BEFE3E4908600868142231460FF09B
:203FB0001BF83046FCF706FD48460DF001FA39480188FF2906D1022101807822001D314611
:203FD0000FF00AF803200FF0B5FA04200FF0AEFA05200FF0A7FA06200FF0A0FA07200AF08F
:203FF000D7FE2D4E0820307006F140000FF092FA0BF0E4F8363605200A2132460EF076FA5E
:2040100038B14046C0F10901401C06F8011B0A28F8DB2F68214909200DF10A0201AB7D6826
:20403000087010204146A847A06AE2690A270A309DF80A1000F8011BDAF808107F1EF7D180
:20405000921E5846E261884703F012F8BDE8FE8FAC18002041490010F84400206C36010044
:20407000A11A0100B5280100381B0020B01D0020D3F200005C1E00203C1C00208D200100B1
:204090002D290100581E00208C2E0020EC1A0020C42E0020DC19002048140020DD2E002055
:2040B0002DE9F04F0546A64CA878216AADF11C0D801F00F03D81C01E00F02881401E77D083
:2040D000401E55D0C01E49D0401E40F03481207A617A00283ED1607800283AD0A8880FF02E
:2040F00015FA071C00F02781A87A400809D3787938B1E968890A04D2B91D01AA07F0C6FAD4
:2041100028B3207B022802D1A87A00091FD36078AE887979C0B1607CB0B90120607405F15E
:204130000802304603F04CFE002840F00481206A002800F000814368002B00F0FC8000214F
:2041500030460A469847F6E00521304603E0032100E00521A8880FF0D5F9ECE0002900F049
:20417000EA804B68002B00F0E6806A780221CBE00EF0AEFD002800F0DE80276A0FB13868D1
:2041900068B9286900280CBFE069012069890FF0B5F9002800F0CF8068890121DBE7286994
:2041B00000903C6869892A7B6B7BE81CA047C2E068784FF00008002840F09580A8794008B4
:2041D000C0F09180606A002840F08D8001A841460E220EF001FFA8880FF098F9061C00F0AF
:2041F000AA806869002859D081464146062209F111000EF001FBC24620B3484606220EF059
:20421000FBFAD8B999F8100009F1110B474605907F1C5846FFB28BF800700DF0D3FC0A2854
:204230000BDA484B059A0101A1EB400158188079824202D1002FEBD100E01FB947464FF019
:20425000010A6F61BAF1000F09D109F1110101A806220EF07BFB99F810008DF80A00BAF1B3
:20427000010F1BD06F69CFB1387C07F1110106228DF80A0001A80EF069FB06F10C00B11D8A
:2042900006220EF063FBB01D07F1110106220EF05DFB387C40F00200707107E07079B11DD0
:2042B00006228DF80A0001A80EF050FBA9799DF81120C1F3800010438DF81100080905D357
:2042D0009DF8110040F008008DF8110001A8294602F000FD28B92078022106F091FC4046AE
:2042F0002AE04FF015080EF0DFFD206A18B343680BB3A8886A7801219847B8F1000F1AD0FB
:20431000206A032142464368A8881BE7E878291D002207F0BBF90A280DDA410001EB800041
:2043300005F10C0225300421C0B205F061FE02E0A8880AF0C7FF012007B0BDE8F08FC04655
:20435000481400203A1500207CB5A34D144602460026A2F58062192A1BD8DFE812F03101CF
:204370002A012201190111010C010401FD00F300E700DF00D700C500B9001A001A009700CB
:2043900081007A0065005C00520047003A0030002500282880F29A80022940F09780218832
:2043B0000FF0A8F8064614E1012940F011812178284601750121C17407F040FC09E1012906
:2043D00040F00681002C00F0038128461230024614E0102940F0FC80002C00F0F9802846A2
:2043F0005C30102221460EF0B1FAF2E0012940F0EF80002C00F0EC802A46921D21781046AE
:20441000E4E0262940F0E480002C00F0E180284626226C30E6E7012940F0DA80002C00F079
:20443000D7802846401D9CE0602900D144B9012940F0CE80002C00F0CB8028460D3090E04D
:2044500005F19200214660220EF080FA01206873BFE0012940F0BC8020780FF047F8B8E0C4
:20447000012940F0B5802178022900F3B180284600F10C0211702178022918BF301C02D10D
:204490001021C17201200FF02DF8A2E0072940F09F80611C684606220EF06CF92078694665
:2044B000324607F0F3F804460A2C0FDA0FF016F838B9204604F058FB0DF0B8FC0AF07EFE57
:2044D00087E0284601212C30015582E0022680E001297DD12A462178907B0028917378D138
:2044F0002078012875D1E9E72846027B01296FD1022A04D02178072901DB102904DD022A95
:2045100066D12178102963D1C17262E001295FD121780A295CDA2846093057E0012957D14D
:204530002178022954DA284608304FE000294FD10EF0D4FF10B90EF0CCFABDE728460121C9
:204550000F3043E0042943D12168244888423FD328461C3001603CE0012939D12B4603F107
:204570000A00217832E0012932D1217802292FDA2846C01D2AE010292AD128464C3030E7F2
:20459000012925D12178022922DA2846001D1DE001291DD1217804291ADC2846C01C02463D
:2045B0002DE7012914D12178022911DA2846821C25E702290CD1218828461630018008E033
:2045D000012905D12178022902DC0548017000E0182630467CBDC046481400203F420F008C
:2045F000491400202DE9F041964F07F114013846ADF1580D0BF030F8934D29680DF14A0098
:204610000160A988818091490DF14A02102003F00BFB07F13C0007F1600107F099FC3861F8
:2046300007F148000EF0B9FBB86107F154000EF0B4FB41F2883201238549F86107F1A8008E
:204650000BF064FC08F066FEDFF8088210201F220023414603F0E8FA4FF44873ADF80C3063
:204670005020ADF80A0001248DF852400026ADF808608DF853600DF15202ADF80E60214698
:20469000642340F20530ADF8103000F0F7F840F20630022102AA00F0F1F807F18D024FF47E
:2046B0004270192100F0EAF807F12C0240F20730072100F0E3F84FF444700DF153022146F9
:2046D00000F0DCF840F2113002210DF10A0200F0D5F840F21230022103AA00F0CFF840F27C
:2046F000133002210DF10E0200F0C8F84FF44570022104AA00F0C2F807F178005649009074
:2047100032461523102003F08FFA414610200622A02303F089FA414610200722A02303F07F
:2047300083FA414610200822A02303F07DFA414610200922A02303F077FA01968DF8566003
:204750008DF854408DF8554001A88DF857404FF481620423414E00901020314603F064FAED
:2047700015A84FF48062234600903146102003F05BFA0DF1550040F2024223460090314626
:20479000102003F051FA0DF1560040F20342234600903146102003F047FA0DF15700009017
:2047B000314640F206422346102003F03DFA2C4910204FF0FF3203F037FA2A4910204FF01A
:2047D000FF3203F031FA0DF0A5FB0BF0DDFC0EF0C9F9254907F13402102003F025FA3878BB
:2047F0000DF0D2F821490246102003F01DFA38780DF0CAF81E490246102003F015FA0EF0A8
:2048100047FA1C49FB2240F64803102003F00CFA1949102003F008FA0BF0E8FA0DF11200A7
:20483000A91D372207F046FB0DF112000EF0CCF981B20DF1120009F007FC0BF077FE16B0C9
:20485000BDE8F081080200209C410100A1B50010B12C0100BD84011071CD000059430000BA
:2048700029230100C12601001D250100518801103181011021B10010C5AB00102DE9FC414E
:20489000A0F2013714468846022F40F232819B4E9C493F1F0F2F04D9143F4CD0BF1E1CD081
:2048B00011E0DFE817F0CF00C9000D01FA00C100B9002601AF00A700100010009D008F0046
:2048D0007F0074006600282880F21381B8F1020F40F00F818849238807E1B8F1010F40F052
:2048F0000881F078012800F00481324620781179107189B9002800F0FC805078012800F047
:20491000B580042800F0B280062800F0AF80052800F0AC80BDE8FC812078002840F0E980F3
:204930005078032800F0AF80072800F0AC80052840F0DF80A7E0B8F1010F40F0DA802078EC
:20495000012840F0D68006F1EC000EF0B1F9002840F0CF803446002004F13A0108F044FA66
:20497000002840F0C68004F1C8000EF031FBBDE8FC81B8F1020F40F0BC8020880A28C0F2CE
:20499000B880B0F5486F00F3B4808E1C17E0B8F1020F40F0AE802088B0F5FA7F80F2A98032
:2049B0000E460CE0B8F1020F40F0A38020880628C0F29F80B0F5486F00F39B803E36308065
:2049D000BDE8FC81B8F1020F40F0938020880628C0F28F80B0F5486F00F38B803C36EEE770
:2049F000B8F1010F40F085802078062880F28180454E0EE0B8F1010F7BD12078042878DAE4
:204A10000A3606E0B8F1010F73D12078082870DA09363070BDE8FC81B8F1010F69D12078C5
:204A3000042866DA0836F4E7B8F1010F61D1207804285EDCF61DECE7B8F1020F59D1208886
:204A50000E36BCE7B8F1010F53D13079012850D032462078D178D07069B9002849D05078CC
:204A7000012803D0042818BF052842D101200EF047F9BDE8FC81207800283AD150780228A9
:204A900018BF052835D110780CF07EFF1C490246102003F0C9F8BDE8FC8106F183050021A8
:204AB0001F22284608F0EBFD21464246284607F001FA44463078B4710CF066FF002311E03C
:204AD00006F1640500211F22284608F0D8FD21464246284607F0EEF94446307874710CF07B
:204AF00053FF01230094094901950246102003F09BF8BDE8FC81C046BD840110A80500206F
:204B100099450110E8050020E2050020094501102DE9F04F9E4C20780E46F10BADF11C0D35
:204B3000C9036ED1B0085ED2606AA16A720807D2F00828BF86F0040680F02581002023E1B1
:204B5000858861B904F11800924A00904FF6FF71022301200EF0BEFC0146A16221B304A828
:204B700000900027019702230293FF220392228B28460DF1120301F0E3FB58B99DF81300B0
:204B90009DF81220A16A12EB002204D0498928460BF0C6FBA16A228B08463B464FF6FF7108
:204BB0000EF094FC0146A162206A00291CBF012186F001061FD168B14368616A5BB1888845
:204BD000002201219847206A676A4368B888032100229847616A88880DF0E2FF0DF084FD00
:204BF00086F00106CFE00020014602F073F830B1012186F00206207806F002F8C3E00221E6
:204C1000F7E707F0B3FB5FEA000800F0BA80054628784FF0010AB03812D0401E03D01F38FF
:204C300000F0A580A7E02879002840F0A480B8F80200B8F80610B8F808200BF071FB9DE077
:204C50002879401E41D0083803D0743800F0828087E068781A2879D0688881460EF01EF9E5
:204C7000801E18D0401E7CD1288901280AD16889032807D1E9688A78484604210AF02CFE20
:204C9000024600E01822206A00286AD04368002B67D0042116E02989688852460129814663
:204CB00009D16989032906D1E9688F781FB910210AF012FE0246206A002852D04368002BB8
:204CD0004FD00521484698474BE02B7A688805F10807082B814639D10EF0E0F8801E12D0F3
:204CF000401E33D1287B0A2818BF122205D16889042100220AF0F0FD0246206A30B343680D
:204D100023B3042120E07888102100220AF0E4FD237D834693B148460EF0F8FB70B11E49A6
:204D30000B784BB94179831D524601F00101084619460DF047FD01E05046E074206A28B1DB
:204D500043681BB105215A467888984768880DF027FF06E06A880EF0A1F8014610460AF00E
:204D70003FFF297905F108000EF024FC03E04046FFF796F98246BAF1000F02D028460DF07A
:204D90000BFB86F40046B0B207B0BDE8F08FC04648140020684201005A4F00202DE9FC41B7
:204DB0008A4C8B4A26788B4F8B4D8C490D2E30464FF4A05351D8DFE816F007010E000E0012
:204DD0000E000E00FF00FF006B00FF00AB00AB00DC00DC00E3008249176041F204464C88BB
:204DF000804FB4421CBFB1F81AE0B6450BD0B1F83280B0451CBF41F20A46B44203D0B64518
:204E100018BFB04502D12E8017607AE0022C764E2C8041F2024736D94FF4806CB4EB0C045D
:204E30001CD0241F012C1FD94FF47F7CB4EB0C041CD04FF4406CB4EB0C040FD0A41E012CC9
:204E50000CD9241F0AD0641E012C0DD940F2F930241A012C17D9241F08D0ADE0022814BF50
:204E70002B80624E16604CE0614EFBE761480068007A012803D14F804F834F86F2E74B80F2
:204E90004B834B86EEE700200DF04AFC832097E059488078FF281ED0584917601C2409689A
:204EB00060430844564C4188298040F20445491B012910D94FF47F75491B15D00A39012900
:204ED00016D940F6F635491B032984BF491F01290FD9891E012977D940F2FD35491B08D064
:204EF000491E012904D906E041F20141418000E04380146005E000200DF012FC85200EF04E
:204F100089FBBDE8FC413F480078012105F078BE4A882A8040F20443D21A55D040F6FC7324
:204F3000D21A15D0083A4FD04FF47F73D21A22D1354C364A2468364800680023CDE90023AC
:204F50000834344B24680222A047334908803BE0092810D131480068408960B13048007813
:204F700009F0E8FE002100200EF0ACFA002020702AE04888288000200DF0D2FB85201FE09D
:204F90004A882A80022A0DD940F20440121A1BD040F6FC70121A05D0083A15D04FF47F70EA
:204FB000121AE8D1887B801CC0B2B528A8BF662088730020488007E000200DF0B1FB8420EA
:204FD000BDE8F6410EF026BBBDE8F3816F4F0020204F0020B32F0100504F0020482E002048
:204FF000204A002075200000F198000071B00000755B0110104F0020684E0020BC2B00209B
:205010002D5B00006E4F0020F04E002002000080EC4E00203D070100424F0020BC2E0020E1
:20503000714F00202DE9F04F8246DAF800600C465FEA0208ADF11C0D14BF00214FF0FF3162
:2050500006F1480083460EF039FA002808BF0B2000F00681002565708448F460B8F1010FA3
:20507000057004D065700220F4600CF0E5FA2078012840F2AB80801E012868D9801E0128C4
:2050900033D9801E012800F2DF800EF07FFA06904FF0805000F5EE77D0F8DC01A378466AF6
:2050B000009321782846062908BF0120019001200290A068228AE1686368B04781460698C7
:2050D0000EF060FAB9F1000F40F0C080B8F1000F02D00DF00BFC02E050460CF0E2FE002835
:2050F00000F0A4803868806A2AE00EF04FFA06904FF0805000F5EE77D0F8DC01012306687B
:205110000093A168A27860682478AC46042C08BF9C466346B047814606980EF033FAB9F1C0
:20513000000F40F09380B8F1000F02D00DF0DEFB02E050460CF0B5FE002877D038684068CF
:2051500080474949C1F8B0510D6081467EE00EF01DFA06904FF0805000F5EE76D0F8DC01E2
:20517000E38A87690093E0680190208B0290A0780390207D04900121059122782846022A51
:2051900008BF081CE1786268A368B847814606980EF0F8F9B9F1000F58D1B8F1000F02D027
:2051B0000DF0A4FB02E050460CF07BFE00283DD03068006A80475FEA000947D13068C56928
:2051D000A168E28A2369E078A847BEE70EF0DEF906904FF0805000F5EE76D0F8DC01E38AED
:2051F000C7680093E0680190208B0290A0780390207D2946049001200590257805B9014624
:2052100008466268A368E178B847814606980EF0B9F9B9F1000F19D1B8F1000F02D00DF0C4
:2052300065FB02E050460CF03CFE08B9142017E03068406980475FEA000907D1306802692F
:205250002169E078904780E74FF0FF39B8F1010F02D002200BF0DCFF58460EF09BF9484666
:2052700007B0BDE8F08FC04650450240DC2E002010B50B7884074CBF43F0020303F0FD0333
:2052900004064CBF43F0800303F07F0304074CBF43F0080303F0F70384064CBF43F0200392
:2052B00003F0DF030B70AA21084203D0107840F00C0003E018B9107800F0F300107010BD76
:2052D0002DE9F0410F461546387802281E464FF0000864D1786801784078069C01EB00204E
:2052F00080B221001CBFB0F5285F0B205CD14FF42851401A0AD0401E1CD0401E49D0401EDD
:2053100020D0401E26D0C5383FD048E0F8680DF065FE079A80B2031B9342B8BF021B92B2A7
:205330001019162803DA3280F86801190EE04FF00D0838E0F8680088022131802870000A35
:20535000687030E0062030800622F96828460DF0FDFA28E0F868B0B10821318001882970CF
:205370000188090A69704188A9704188090AE970818829718188090A6971C188A971C0884D
:20539000000AE8710FE030800DE049480078C00705D401203080F8680078287003E0A6F8A3
:2053B00000804FF001084046BDE8F0812DE9FC4B0E46804630780027022891461D4673D18B
:2053D0007068017840780A9CDFF8E4B001EB002080B24FF42851401A08D0401E2BD0401EC0
:2053F0004ED0401E3AD0C63858D05DE0F0680DF0F5FD80B2A04204D32919162903DB0D27EF
:2054100053E0072751E0F3682A46494618190DF09DFA2C19F068A4B2C4F116020021204486
:205430000DF0DAFDDBF8040000283ED0026810003BD0002121E07CBB022DE0D199F800002C
:2054500099F8011000EB0120F1680880DBF8040058B30268100028D001210EE0E4B9062D79
:20547000CDD1F068062249460DF070FADBF80400D8B10268100018D003214046904714E0D1
:2054900054B9012DBBD199F80000010013BF0128F1680870802708E00B2706E09BF800009D
:2054B000C00758BF032700D501273846BDE8F68BE01D00202DE9F04FDFF800B29BF80000A5
:2054D000002887B004D0401E032804D9801F012840F2F180E9E07A4CDFF8E8812068DFF88A
:2054F000E8910068794D00F10807062207F1080104A80DF02BFA0622B91C68460DF026FA36
:205510003978C1F380108DF80C001E26C80901F00F02032A37D16179C1F38001884231D1CE
:205530002169062204A80CF027FF00282AD09DF80C0069460EF01AF8002823D02946684621
:205550000CF097F9FF281DD0D9F80010897A70432E180A0018BF02290AD0012918BF0329AB
:2055700010D12A5C711C40460DF0A4FF102809D06A46F11D404609F033FA06226946F01DA2
:205590000DF0E4F98CE001F00F01052940F093806179C1F380018842F4D12169062204A847
:2055B0000CF0EAFE00287BD0387847099DF80C0069460DF0DBFF40F2024A70B3294668469F
:2055D0000CF057F98346BBF1FF0F69D006FB0BF029180291D9F80010897A0A0018BF0129F4
:2055F0000BD0022918BF03295AD12A5C0298411C40460DF05FFF102852D050460DF056FFC7
:205610000298C11D6A46404609F0EAF9029806226946C01D0DF09AF91BE09BF8000002285A
:205630003ED19DF80C106A46284609F04AF88346BBF1FF0F34D006FB0BF02818417F012994
:2056500004D069BB0D300DF095FF48B350460DF02DFF06FB0BF0D9F80020295C9176281801
:20567000411CD9F80000062214300DF06FF9184918488978490604D5F90758BF41F20A419C
:2056900001D541F204414180418341861248018012491348086001211248007805F0B0FAD4
:2056B000216809680020087105E000200DF038F886200DF0AFFF07B0BDE8F08F6F4F00200B
:2056D000F44B0020CC470020104F002008250020642E0020204A0020504F0020204F0020D2
:2056F000752000006E4F00202DE9F04F0128ADF1140D40F0E980DFF808B2DBF8DC000128E9
:2057100040F0DF800220CBF8DC000DF0CBFE029001200AF0C1FD5FEA000806D00120CBF8ED
:20573000DC0002980DF0BAFED0E00DF0B3FE4FF0000903906748684CC0F80090A06A0168D7
:2057500001208847012818BFCDF8009004D1484608F04EFE012000906048614FC0F80090FC
:20577000386811200DF05EFB00280CBF4D46012510200DF057FB08B145F002050F200DF0A6
:2057900051FB08B145F004050B200DF04BFB20B12068544E016B308888470A200DF042FBF6
:2057B00020B12068504E016B308888474F48012606602068816945F0200088474C4806603B
:2057D0000DF02AFB00F001010191400814D2206A8168484888478246BAF1040FF7D0BAF11B
:2057F000010F04D1206A42684248032190474249086820F003000860484600F09BFA2368E7
:205810003868986B8047019801280CD0BAF1010F04D1206A426837483146904736490868F0
:2058300040F0030008602D48066020684169284688470B200DF0F6FA20B12068294BC16A63
:20585000188888470A200DF0EDFA20B12068264BC16A18888847254806600322CBF8DC20A0
:20587000234BC3F800902068416B284688470128F9D1386804200AF00FFD044615481F4922
:205890000660386808688009FCD30098012802D1304608F0ADFD0DF0ADFA08200AF0FCFCC0
:2058B00007460398CBF8DC600DF0F0FD08F0A0FF02980DF0F3FD57EA040018BF4FF0FF3857
:2058D00004E06FF0040801E06FF00108404605B0BDE8F08F0C400940B801001000022243FC
:2058F0002C200940AA400100A640010028200860800104430040034024220840141009403B
:20591000DC1600202DE9F84F0024794D794EDFF8E8B1DFF8E8A1DFF8E881DFF8E8911820BF
:20593000D9F8001060430AEB0007487A0122A240104209D0087A38F8100038801BF8040054
:20595000B8730020F87302E040F6010038800020788007F118007860387B00F0EF0040F0EE
:2059700080003873097A01290ED141F28830B860387B00F0F00040F005003873787B00F007
:20599000F00040F0020013E0002C0CBF0221002100F0F00008433873DCB90DF0D7FD00F576
:2059B000C870CAF808000220797B01F0F00108437873641C3E61032C7D61B0DBD9F800001F
:2059D000007A01280EBFCAF834A00020CAF8340005E00020022CB860E5D10120E4E70CF0B2
:2059F0006DF83060484880690078C1074CBF1021002182074CBF2022002243074CBF4023DC
:205A1000002300074CBF8020002011431943084340F00F00307100207071D9F8000000F1E3
:205A300008018A7802F003027271CB789B0003F004031A4372718B7CDB0003F0080343F046
:205A500010031A4372710A78012A18BF042A06D10021B171F171B16000F1140217E04A7DDF
:205A7000B27100F15D025378F3714B7D2BB1097DC1EB411101441E3100E00021B1605178DD
:205A900021B11178C1EB411101445F311F4AF160726100F10C0131611D4AF17E01F0E00103
:205AB00041F08601F1761B49F161127871792AB1327902F0FE0241F040013271164A927896
:205AD00052064CBF41F0200101F0DF01717100212980A970E97029716971E9802981A97270
:205AF000E972E9600068C0F804A0BDE8F18F00BFB44D0020F44B0020409A0110204A002055
:205B1000109A0110104F002028450100D0470020784E002000204E00642E002080488078D0
:205B3000FF2800D170472DE9F84F0DF025F8044604F217100178012908BF417800F0AC8089
:205B500004F17400807B022803D104F17401002088734FF492702518E98908001CBF287BD4
:205B700005F04EF8608920816E48C779817A067BC37A427BC9197118591811441FFA81FC1D
:205B90004FF48D7104EB010EBEF80410491CAEF80410BEF800106144AEF80010827ABEF8FA
:205BB00002105118AEF802101C21D5F800905E4AB9F1000F1DD094F806A0D2F8008001FB42
:205BD0000AFAC2449AF80EA039F81AB0DC4429F81AC094F806C001FB0CFCC4449CF80EC095
:205BF00009EB4C0C90F80A90BCF84A80C844ACF84A80002F08BF002B04D1002E04BF437B8A
:205C1000002B27D02389E689F318A38100232374237F012B04BF638CE38343788BB101234D
:205C3000237704F174039B78002B02BF04F174039B7B002B05D104F174031B7F0BB9638C13
:205C5000E3832B7D1E0030D0022B04BFC37A002B27D129E0E383837A3BB100232374237F04
:205C7000012B07D1638CE38304E0BEF806305B1CAEF80630A38926899E4206D0B342CCD274
:205C9000F31A41F2AB07BB42C7DA207C08B1052E01D0082100E03E212046BDE8F44F0CF059
:205CB00079BA437A0BB102232B75204BC77B1E682368FF0707D50169D9600022A17906EBF3
:205CD00041114A610DE0A77906EB471676692E61A5791268694311448968D9600021E183A6
:205CF000217713494969097889074CBF807B812084F874002046FCF751FC01280ED0012177
:205D1000204607F045FB20460CF0B8F8FCF7B4FE012803D0BDE8F14FFDF7F8BEBDE8F18F6F
:205D3000684E00205C4D0020BC2B0020B42E0020284501002DE9F84FDFF8F4B10746ABF17B
:205D50003500DFF8E0910068800880F0D98071480068006880477A490831D1F80080002543
:205D70004FEA28725FEA985102F101020AD2C0F13E0110F10A0F4FEAE101D8BF08218A428B
:205D9000B8BF0A1C644BD3F87C11C1F304611629A8BF20391B68C3F30443162BA8BF203BB4
:205DB0009A465118162905DA11F10A0FB8BF6FF0090100E01521594B594E01F01F0242F4C8
:205DD000F8521A80326812F0030F18BF0125D20828BF45F002050FB145F004054A4692F90E
:205DF0000730C31A052B04DA9379AB4208BF918866D0DFF834E10F28A0F10F0C25DB0CEB9C
:205E10000013A3F1F00C4FEA2C26072E88BF07263446062C88BF06245EF82470042303EB7F
:205E300084037446E358DB1B03F0FF04EF0824BFC3F307273C44AF0824BFC3F307473C448E
:205E50006F0828BF04EB136401E0002426465EF826E0EF080EF0FF0324BFCEF307273B4459
:205E7000AF0824BFCEF307473B446F0828BF03EB1E63A4B2ACEB0626AAEB0101744300298D
:205E900004F1800403EB1423D8BF0121342408F0FF074C43A1B27943B1FBF3F14FF6FF7360
:205EB0008B4238BF191C802889B2918005DA10F1800FB8BF6FF07F0000E07F20D07195715B
:205ED0001A4800681F2910604FF0000008D340F2FF128A4206D24908401C8A42FBD301E007
:205EF0001F219180134F0F39090940EAC10047EA0001CBF8FB1F0026CBF8FF6FBDE8F88F08
:205F10000D490E4F4A4608200F60921D1070BDE8F88FC046EC0100103C1100506E62084084
:205F300024220840A42E00209C130050082009403500094000E7A48030100940FDFDA400B1
:205F5000AC3F0050F8B57E4E04463068C06E0025002840F0F18010200CF0DAFE31680028BA
:205F7000C86600F0E7808F6E102221460CF0EEFC30680178002940F08E80C16ED7F89820E2
:205F900011F80CCF02F001030CF0010C634518BF0023520843EA4202C7F89820C2F3400332
:205FB000D1F800C0CCF3400C634506BF530803F00103002322F0020242EA4302C7F898205D
:205FD000C2F38003D1F800C0CCF3800C634506BF930803F00103002322F0040242EA8302BA
:205FF000C7F89820C2F3C003D1F800C0CCF3C00C634506BFD30803F00103002322F0080210
:2060100042EAC302C7F89820C2F30023D1F800C0CCF3002C634506BF130A03F00103002318
:2060300022F4807242EA0322C7F89820C2F34023D1F800C0CCF3402C634506BF530A03F0F7
:206050000103002322F4007242EA4322C7F89820C2F38023D1F800C0CCF3802C634506BFC0
:20607000930A03F00103002322F4806242EA8322C7F89820C2F3C0230968C1F3C0218B42AE
:2060900006BFD10A01F00101002122F4006242EAC121C7F89810816E91F89520120718D51C
:2060B000C26E5268C2F3C0029AB1C17841F00801C170D7F8980023490840C7F89800306876
:2060D000C06EC16821F48071C16049084900C16003E091F8330001282AD0617808001CBFF9
:2060F0007878002808D13068C278120708D5002904BF7978002903D03168052008711CE0CB
:206110006168C1F3800141B997F8951011F0040102D10121017110E00AD00078002819BF94
:2061300038782178397820780DF0ACF9054604E0182502E0132500E011252846F2BD00BFA3
:20615000304F0020FEFEFFFF2DE9FE4F04468946206846684FF49A7004EB000AB0680DF089
:20617000F1F9002840F0DC802068016948460DF085F904F1820780463878002804F12E0532
:2061900040F6C41B6DD0218978880DF017FA02903878029902280CBFBAF83000A888484376
:2061B00001900BFB00F00090206800990069091848460DF0C7F900284DD000983A89A8EB8F
:2061D00000010BFB02F3B1FBF3F003FB101101B1401C02FB00F12289029B9A188018608196
:2061F000FA880198101801EB00093878012849D104F1860120460CF06FF87889E1896084D0
:2062100000202077E08360890818A081AB883889B989984204BF2B89994202BF7A89EB8891
:206230009A4207D00909009142087B89A17900200DF0CCF9A888AAF83000387928703889A2
:20625000A8807889E880B889288120460CF006FA0220387016E0387801281CBF00200CF0C1
:206270005FFAA8880BFB00F1B8FBF1F290B201FB128109B1401C80B2218941186181A988C9
:2062900001FB00F9206801690BFB0912B26003782949802B0AD1C2600B6BAA881B680BFB0E
:2062B00002F2D21A7369A2F516725A610278402A2FD1628A02FB09F24FF4C873B2FBF3F260
:2062D000521CC4F818906261B3689A1AB2606369DAF8002002EB430273695A61174A3B789D
:2062F0001268022B09D1A3792F7802EB4313D3F814900BFB0799C3F81490A379096B096892
:2063100002EB4312AB880BFB03F3591AA1F51671D161B1688160E87AA87220460AF085FAE5
:206330006189A0890DF04AF9E189814238BF0120AAF82E00BDE8F78F28450100B42E00204A
:206350002DE9FE4F0D468146287AC00693461E464FF000080CD558460DF08CF8030000F0D1
:20637000E3800A22294648469847002880464DD128780C9F0D9CDDF838A002281AD1686810
:206390000178407801EB002080B24FF42051401A012810D9801E3AD0401E14D0FD3876D0F9
:2063B000401E00F07D80401E6AD0401E6FD0401E00F09180A7E0002C2AD1E86801783980BE
:2063D0000278416883E0002C22D1012038800021E868007830706889401C80B20DF046F8EC
:2063F000398860B10278921C51183980418971704189090AB17002784168F01C68E0081D2C
:20641000388004220021701C0CF0E6FD8EE0002C62D1E8680488042038803470200A7070CF
:206430000DF1020120460DF021F805001ED0EC68BDF802204FF6FF796B4649460DF046F879
:2064500040B92B786A683B4802210DF00BF808B9ADF80090207802280AD161680222301D4B
:206470000CF074FA3888801C388001E0ADF80040BDF80000B070BDF80000000AF07055E09F
:2064900054BBE868016848460CF0EAFB02E01CBBE8680088022139803070000A707045E099
:2064B000E8680CF09BFD82B2A242B8BF4FF007083CDB944208BF002206D00AEB0401914292
:2064D000B2BF5246121B92B23A80E968214430460CF03CFA2AE014B14FF00B0826E0E868A3
:2064F0000721398001783170417871704188B1704188090AF17001793171C1887171C08841
:20651000000AB07112E058460CF0A8FF844658B10F980290CDF804A000943B46324629469C
:206530004846E047804601E04FF00E084046BDE8FE8F00BF604201002DE9F0411C4615467C
:206550008C4208BF854282BF00230022E5E0002C08BF002D0AD100290EBF00286FF000000C
:206570006FF0000100F0E1F8BDE8F0815FF000085FF0000E002C08BF8D429CBF2C1C00258E
:20659000070C47EA01470E0CB44208BFBD429EBF5FEA044444EA15445FEA0545070A47EA3F
:2065B00001670E0AB44208BFBD429EBF5FEA042444EA15645FEA0525470847EAC1774E0899
:2065D000B44208BFBD4200F29380870847EA81778E08B44208BFBD427CD8C70847EA4177D4
:2065F000CE08B44208BFBD4266D8070947EA01770E09B44208BFBD4250D8470947EAC1675E
:206610004E09B44208BFBD423AD8870947EA81678E09B44208BFBD4224D8C70947EA4167A4
:20663000CE09B44208BFBD420DD8E60146EA5566EF01B14208BFB84201D3C01BB14158EB78
:2066500008085EEB0E0EA60146EA95664FEA8517B14208BFB84201D3C01BB14158EB080866
:206670004EEB0E0E660146EAD5666F01B14208BFB84201D3C01BB14158EB08084EEB0E0E76
:20669000260146EA15762F01B14208BFB84201D3C01BB14158EB08085EEB0E0EE60046EAB5
:2066B0005576EF00B14208BFB84201D3C01BB14158EB08084EEB0E0EA60046EA9576AF0083
:2066D000B14208BFB84201D3C01BB14158EB08084EEB0E0E660046EAD5766F00B14208BFA3
:2066F000B84201D3C01BB14158EB08085EEB0E0EA14208BFA84201D3401BA14158EB08083F
:206710005EEB0E0EA34208BFAA423EBF2D0A45EA0465240A89D3734642461E4617460B46C3
:20673000024631463846BDE8F08170472DE9FE4FDFF8D89199F8010008B90BF0F1FF0CF062
:2067500005FF4FF0000A00F6C4140027704E714D11E038460CF010FA417951B132688179A6
:2067700002F80A100AF101015FFA81FA2146FFF7EBFC7F1CFFB228788742EADB99F80100D4
:20679000824505D000200BF0CBFF82200CF042FF99F8010001281DD1002701E07F1CFFB28C
